:0300000002038B6D
:0C038B00787FE4F6D8FD75812B0203D2C8
:10002600736177007472690073696E00737175008D
:1000360000020406080A0C0E10121416181A1C1ECA
:1000460020222426282A2C2E30323436383A3C3EBA
:1000560040424446484A4C4E50525456585A5C5EAA
:1000660060626466686A6C6E70727476787A7C7E9A
:1000760080828486888A8C8E90929496989A9C9E8A
:10008600A0A2A4A6A8AAACAEB0B2B4B6B8BABCBE7A
:10009600C0C2C4C6C8CACCCED0D2D4D6D8DADCDE6A
:1000A600E0E2E4E6E8EAECEEF0F2F4F6F8FAFCFE5A
:1000B600FEFEFEFCFAF8F6F4F2F0EEECEAE8E6E410
:1000C600E2E0DEDCDAD8D6D4D2D0CECCCAC8C6C4FA
:1000D600C2C0BEBCBAB8B6B4B2B0AEACA0A8A6A4F4
:1000E600A2A09E9C9A98969492908E8C8A888682DC
:1000F600807E7C7A78767472706E6C6A68666462EA
:10010600605E5C5A58565452504E4C4A48464442D9
:10011600403E3C3A38363432302E2C2A28262422C9
:10012600201E1C1A18161412100E0C0A08060402B9
:1001360000808386898D909396999C9FA2A5A8ABF3
:10014600AEB1B4B7BABCBFC2C5C7CACCCFD1D4D67C
:10015600D8DADDDFE1E3E5E7E9EAECEEEFF1F2F428
:10016600F5F6F7F8F9FAFBFCFDFDFEFFFFFFFFFFD2
:10017600FFFFFFFFFFFFFFFEFDFDFCFBFAF9F8F7AF
:10018600F6F5F4F2F1EFEEECEAE9E7E5E3E1DFDDBF
:10019600DAD8D6D4D1CFCCCAC7C5C2BFBCBAB7B4D9
:1001A600B1AEABA8A5A29F9C999693908D898683A4
:1001B60080807C7976726F6C696663605D5A57558C
:1001C600514E4C484543403D3A383533302E2B2965
:1001D600272522201E1C1A1816151311100E0D0B9A
:1001E6000A090807060504030202010000000000D0
:1001F60000000000000000010202030405060708D3
:10020600090A0B0D0E1011131516181A1C1E2022A2
:100216002527292B2E303335383A3D404345484C67
:100226004E5155575A5D606366696C6F7276797C7C
:010236007E49
:0B05EA00010E00020A000302080000DE
:030023000205389B
:10053800C0E0C0D075D000C007750E00AF99750C2B
:10054800008F0DC298850C0A850D0B050EE50EB4BB
:0905580003EAD007D0D0D0E03254
:10023700758920759850E4F587D28E758DF4758B86
:10024700F4D2AFD2ACD2BCD2A9C2A71204177F0A8C
:100257007E001205D5E50B6401450A700D7BFF7A18
:100267000079267D017F02120585E50B6402450AA8
:10027700700D7BFF7A00792A7D017F02120585E5E3
:100287000B6403450A700D7BFF7A00792E7D017F91
:1002970002120585E50B6404450A700D7BFF7A00A1
:1002A70079327D017F02120585E4F50EE50ED394C0
:1002B700FF50A2E50A7035E50B24FE600F146013AA
:1002C70014601A24037025850E908020E50E900097
:1002D700368005E50E90013793F590800FE50EC344
:1002E70094805005E4F59080037590FF050E80BC5F
:080600007F027EEFDEFEDFFC4D
:0106080022CF
:1005A800AD07C2A6C2A5C2A41206008D80D2A412AD
:0705B8000600C2A4020600C8
:10056100CFCDCFCECCCE1203367C007D0A1203361E
:04057100ED2430FF46
:10057500D2A6C2A58F80D2A4120600C2A40206008C
:1005BF00AE07BE0104ED148006BE0209ED243F44D0
:0605CF0080FF1205A822C6
:100417007F057E001205D57F381205A87F0A7E006A
:100427001205D57F381205A87F0A7E001205D57FF1
:100437000C1205A87F057E001205D57F061205A8B8
:100447007F057E001205D57F011205A87F057E0076
:030457000205D5C6
:0A05F600AC031205BFAF0402057547
:060585008B298A2A892B54
:10058B001205BFE4FDAB29AA2AA92B8D8275830026
:0C059B001202F7FF60061205750D80E9E2
:0105A7002231
:0C0505007F0AEA24FFFDE434FFFC7E00C6
:080511008E258F268C278D2812
:100519007F017E00E4FBEBC39528E5276480F8742E
:0E0529008098500AAC25AD261203240B80E802
:0105370022A1
:040003008A188B19B3
:100007001205BFAA1AEAD39400400D120505AC18D1
:08001700AD191205611A80ED1C
:01001F0022BE
:10045A001205BFC3EA64809480400B7F2B12057596
:10046A008A148B15800E7F2D120575C3E49BF51532
:10047A00E49AF514AA13EAD39400400D120505ACC8
:09048A0014AD151205611A80ED94
:010493002246
:040494008A1D8B1E14
:100498001205BFAA1FEAD3940040297F101205074E
:1004A800AC1DAD1ECFCDCFCECCCE120336EF540F40
:1004B800FEC3940AEE5004243080022437FF12054C
:0404C800751A80D150
:0104CC00220D
:0404CD008A228B23D1
:1004D1001205BFAA24EAD394004028EA24FFFDE4D0
:1004E10034FFFC7F027E00120511AC22AD23CFCD7B
:1004F100CFCECCCE120336EF54012430FF12057556
:030501001A80D28B
:0105040022D4
:1005D500EF1FAC0670011E4C600A7D027CEFDCFE4D
:0405E500DDFC80ECCD
:0105E90022EF
:10039700020237E493A3F8E493A34003F68001F243
:1003A70008DFF48029E493A3F85407240CC8C33367
:1003B700C4540F4420C8834004F456800146F6DF36
:1003C700E4800B01020408102040809005EAE47ED7
:1003D700019360BCA3FF543F30E509541FFEE4932B
:1003E700A360010ECF54C025E060A840B8E493A3F2
:1003F700FAE493A3F8E493A3C8C582C8CAC583CA1D
:10040700F0A3C8C582C8CAC583CADFE9DEE780BED4
:0105F5000005
:1002F700BB010CE58229F582E5833AF583E02250BC
:1003070006E92582F8E622BBFE06E92582F8E22205
:0D031700E58229F582E5833AF583E493221F
:10032400EF8DF0A4A8F0CF8CF0A428CE8DF0A42EED
:02033400FE22A7
:10033600BC000BBE0029EF8DF084FFADF022E4CCAB
:10034600F875F008EF2FFFEE33FEEC33FCEE9DEC74
:10035600984005FCEE9DFE0FD5F0E9E4CEFD22EDBA
:10036600F8F5F0EE8420D21CFEADF075F008EF2F04
:10037600FFED33FD4007985006D5F0F222C398FDF5
:050386000FD5F0EA2292
:00000001FF
