:0300000002021CDD
:0C021C00787FE4F6D8FD75812C020263A7
:1004BF00534157005452490053494E005351550070
:1004650002090BB8020B07D0020D0FA0020F07D02F
:070475000108000211000064
:10035E007E007C037DE81201C78E118F12D3E51249
:10036E009400E5119400401F751701AB12AA117D80
:10037E00017F01120448E5121512700215117FE873
:08038E007E031204AA80D622AE
:10000300758920758BF4758DF4E4F587759850D256
:100013008E1202A87F0A7E001204AA20945A20900E
:10002300137F147E001204AA74E8250AF50A7403E8
:100033003509F5092091137F147E001204AA74E890
:10004300250CF50C7403350BF50B2092137F147EEE
:10005300001204AA74E8250EF50E7403350DF50D90
:100063002093B87F147E001204AA74E82510F510BB
:100073007403350FF50F80A37599017BFF7A04791B
:10008300BF7D017F02120425D3E50A9400E509949C
:10009300004023751704AB0AAA097D017F011204EE
:1000A300487418250AF50A74FC3509F5097FE87EBA
:1000B300031204AA80D23099C2C2997599027BFFB8
:1000C3007A0479C37D017F02120425D3E50C9400E1
:1000D300E50B94004023751704AB0CAA0B7D017F3D
:1000E300011204487418250CF50C74FC350BF50B40
:1000F3007FE87E031204AA80D23099C2C29975990F
:10010300037BFF7A0479C77D017F02120425D3E5BF
:100113000E9400E50D94004023751704AB0EAA0D51
:100123007D017F011204487418250EF50E74FC3509
:100133000DF50D7FE87E031204AA80D23099C2C266
:10014300997599047BFF7A0479CB7D017F021204B0
:1001530025D3E5109400E50F94004023751704ABF5
:1001630010AA0F7D017F0112044874182510F510A1
:1001730074FC350FF50F7FE87E031204AA80D2309A
:0501830099C2C299229F
:1004AA00EF1FAC0670011E4C600A7D027CEFDCFE79
:0404BA00DDFC80ECF9
:0104BE00221B
:0804D9007F027EEFDEFEDFFC76
:0104E10022F8
:10047D00AD07C2A6C2A5C2A41204D98D80D2A41202
:07048D0004D9C2A40204D946
:10040100CFCDCFCECCCE1201C77C007D0A1201C761
:04041100ED2430FFA7
:10041500D2A6C2A58F80D2A41204D9C2A40204D93F
:10049400AE07BE0104ED148006BE0209ED243F44FC
:0604A40080FF12047D221E
:1002A8007F057E001204AA7F3812047D7F0A7E0033
:1002B8001204AA7F3812047D7F0A7E001204AA7FE6
:1002C8000C12047D7F057E001204AA7F0612047DAD
:1002D8007F057E001204AA7F0112047D7F057E003F
:0302E8000204AA63
:0A04CF00AC03120494AF04020415FC
:060425008B138A148915F7
:10042B00120494E4FDAB13AA14A9158D82758300F5
:0C043B00120188FF60061204150D80E914
:010447002292
:0C03CE007F0AEA24FFFDE434FFFC7E00FF
:0803DA008E188F198C1A8D1B7F
:1003E2007F017E00E4FBEBC3951BE51A6480F87481
:0E03F2008098500AAC18AD191201B50B80E8C6
:0104000022D9
:040448008A158B1670
:10044C00120494AA17EAD39400400D1203CEAC15F3
:08045C00AD161204011A80ED37
:010464002275
:1002EB00120494C3EA64809480400B7F2B12041594
:1002FB008A218B22800E7F2D120415C3E49BF522DD
:10030B00E49AF521AA20EAD39400400D1203CEAC57
:09031B0021AD221204011A80ED4B
:0103240022B6
:040325008A258B2674
:10032900120494AA27EAD3940040297F101203D01B
:10033900AC25AD26CFCDCFCECCCE1201C7EF540F11
:10034900FEC3940AEE5004243080022437FF1204BD
:04035900151A80D120
:01035D00227D
:040396008A2A8B2BF9
:10039A00120494AA2CEAD394004028EA24FFFDE42C
:1003AA0034FFFC7F027E001203DAAC2AAD2BCFCDDC
:1003BA00CFCECCCE1201C7EF54012430FF12041560
:0303CA001A80D2C4
:0103CD00220D
:10022800020003E493A3F8E493A34003F68001F2E9
:1002380008DFF48029E493A3F85407240CC8C333D7
:10024800C4540F4420C8834004F456800146F6DFA6
:10025800E4800B0102040810204080900465E47ECD
:10026800019360BCA3FF543F30E509541FFEE4939B
:10027800A360010ECF54C025E060A840B8E493A362
:10028800FAE493A3F8E493A3C8C582C8CAC583CA8D
:10029800F0A3C8C582C8CAC583CADFE9DEE780BE45
:01047C00007F
:10018800BB010CE58229F582E5833AF583E022502C
:1001980006E92582F8E622BBFE06E92582F8E22276
:0D01A800E58229F582E5833AF583E4932290
:1001B500EF8DF0A4A8F0CF8CF0A428CE8DF0A42E5E
:0201C500FE2218
:1001C700BC000BBE0029EF8DF084FFADF022E4CC1C
:1001D700F875F008EF2FFFEE33FEEC33FCEE9DECE5
:1001E700984005FCEE9DFE0FD5F0E9E4CEFD22ED2B
:1001F700F8F5F0EE8420D21CFEADF075F008EF2F75
:10020700FFED33FD4007985006D5F0F222C398FD65
:050217000FD5F0EA2202
:00000001FF
